{
  "contractName": "TodoList",
  "abi": [
    {
      "constant": true,
      "inputs": [
        {
          "name": "",
          "type": "uint256"
        }
      ],
      "name": "tasks",
      "outputs": [
        {
          "name": "id",
          "type": "uint256"
        },
        {
          "name": "content",
          "type": "string"
        },
        {
          "name": "completed",
          "type": "bool"
        }
      ],
      "payable": false,
      "stateMutability": "view",
      "type": "function",
      "signature": "0x8d977672"
    },
    {
      "constant": true,
      "inputs": [],
      "name": "taskCount",
      "outputs": [
        {
          "name": "",
          "type": "uint256"
        }
      ],
      "payable": false,
      "stateMutability": "view",
      "type": "function",
      "signature": "0xb6cb58a5"
    },
    {
      "anonymous": false,
      "inputs": [
        {
          "indexed": false,
          "name": "id",
          "type": "uint256"
        },
        {
          "indexed": false,
          "name": "content",
          "type": "string"
        },
        {
          "indexed": false,
          "name": "completed",
          "type": "bool"
        }
      ],
      "name": "TaskEdited",
      "type": "event",
      "signature": "0xb3cc5a6bb15585acf54ef4853ea5e9b8a5cda67ba6640f4e6db059e0898860a9"
    },
    {
      "anonymous": false,
      "inputs": [
        {
          "indexed": false,
          "name": "id",
          "type": "uint256"
        },
        {
          "indexed": false,
          "name": "content",
          "type": "string"
        },
        {
          "indexed": false,
          "name": "completed",
          "type": "bool"
        }
      ],
      "name": "DeleteTask",
      "type": "event",
      "signature": "0xef9b3f24a573648fa13da2a1dd55e2c4cc88ac82a3bf3dddcc8c2876bcb5dba7"
    },
    {
      "constant": false,
      "inputs": [
        {
          "name": "_content",
          "type": "string"
        }
      ],
      "name": "createTask",
      "outputs": [],
      "payable": false,
      "stateMutability": "nonpayable",
      "type": "function",
      "signature": "0x111002aa"
    },
    {
      "constant": false,
      "inputs": [
        {
          "name": "_id",
          "type": "uint256"
        },
        {
          "name": "_content",
          "type": "string"
        },
        {
          "name": "_completed",
          "type": "bool"
        }
      ],
      "name": "updateTask",
      "outputs": [],
      "payable": false,
      "stateMutability": "nonpayable",
      "type": "function",
      "signature": "0x00d5c477"
    },
    {
      "constant": false,
      "inputs": [
        {
          "name": "_id",
          "type": "uint256"
        }
      ],
      "name": "deleteTask",
      "outputs": [],
      "payable": false,
      "stateMutability": "nonpayable",
      "type": "function",
      "signature": "0x560f3192"
    }
  ],
  "bytecode": "0x60806040526000805534801561001457600080fd5b50610993806100246000396000f3fe60806040526004361061006b5763ffffffff7c0100000000000000000000000000000000000000000000000000000000600035041662d5c4778114610070578063111002aa1461012e578063560f3192146101e15780638d9776721461020b578063b6cb58a5146102bf575b600080fd5b34801561007c57600080fd5b5061012c6004803603606081101561009357600080fd5b813591908101906040810160208201356401000000008111156100b557600080fd5b8201836020820111156100c757600080fd5b803590602001918460018302840111640100000000831117156100e957600080fd5b91908080601f01602080910402602001604051908101604052809392919081815260200183838082843760009201919091525092955050505035151590506102e6565b005b34801561013a57600080fd5b5061012c6004803603602081101561015157600080fd5b81019060208101813564010000000081111561016c57600080fd5b82018360208201111561017e57600080fd5b803590602001918460018302840111640100000000831117156101a057600080fd5b91908080601f0160208091040260200160405190810160405280939291908181526020018383808284376000920191909152509295506104d2945050505050565b3480156101ed57600080fd5b5061012c6004803603602081101561020457600080fd5b50356105f6565b34801561021757600080fd5b506102356004803603602081101561022e57600080fd5b50356107ac565b604051808481526020018060200183151515158152602001828103825284818151815260200191508051906020019080838360005b8381101561028257818101518382015260200161026a565b50505050905090810190601f1680156102af5780820380516001836020036101000a031916815260200191505b5094505050505060405180910390f35b3480156102cb57600080fd5b506102d461085b565b60408051918252519081900360200190f35b6102ee610861565b60008481526001602081815260409283902083516060810185528154815281840180548651600296821615610100026000190190911695909504601f810185900485028601850190965285855290949193858401939092908301828280156103975780601f1061036c57610100808354040283529160200191610397565b820191906000526020600020905b81548152906001019060200180831161037a57829003601f168201915b50505091835250506002919091015460ff161515602091820152818101858152841515604080850191909152600088815260018085529190208451815591518051949550859492936103ef9392850192910190610885565b5060408201518160020160006101000a81548160ff0219169083151502179055509050507fb3cc5a6bb15585acf54ef4853ea5e9b8a5cda67ba6640f4e6db059e0898860a9816000015182602001518360400151604051808481526020018060200183151515158152602001828103825284818151815260200191508051906020019080838360005b83811015610490578181015183820152602001610478565b50505050905090810190601f1680156104bd5780820380516001836020036101000a031916815260200191505b5094505050505060405180910390a150505050565b600080546001908101808355604080516060810182528281526020808201878152828401879052938652848152919094208451815591518051929361051f93908501929190910190610885565b5060408201518160020160006101000a81548160ff0219169083151502179055509050507fb3cc5a6bb15585acf54ef4853ea5e9b8a5cda67ba6640f4e6db059e0898860a9600054826000604051808481526020018060200183151515158152602001828103825284818151815260200191508051906020019080838360005b838110156105b757818101518382015260200161059f565b50505050905090810190601f1680156105e45780820380516001836020036101000a031916815260200191505b5094505050505060405180910390a150565b6105fe610861565b60008281526001602081815260409283902083516060810185528154815281840180548651600296821615610100026000190190911695909504601f810185900485028601850190965285855290949193858401939092908301828280156106a75780601f1061067c576101008083540402835291602001916106a7565b820191906000526020600020905b81548152906001019060200180831161068a57829003601f168201915b50505091835250506002919091015460ff161515602091820152600084815260019182905260408120818155929350906106e390830182610903565b50600201805460ff191690558051602080830151604080850151815185815281151592810192909252606082850181815284519184019190915283517fef9b3f24a573648fa13da2a1dd55e2c4cc88ac82a3bf3dddcc8c2876bcb5dba7969592939260808401919086019080838360005b8381101561076c578181015183820152602001610754565b50505050905090810190601f1680156107995780820380516001836020036101000a031916815260200191505b5094505050505060405180910390a15050565b600160208181526000928352604092839020805481840180548651600296821615610100026000190190911695909504601f810185900485028601850190965285855290949193929091908301828280156108485780601f1061081d57610100808354040283529160200191610848565b820191906000526020600020905b81548152906001019060200180831161082b57829003601f168201915b5050506002909301549192505060ff1683565b60005481565b60606040519081016040528060008152602001606081526020016000151581525090565b828054600181600116156101000203166002900490600052602060002090601f016020900481019282601f106108c657805160ff19168380011785556108f3565b828001600101855582156108f3579182015b828111156108f35782518255916020019190600101906108d8565b506108ff92915061094a565b5090565b50805460018160011615610100020316600290046000825580601f106109295750610947565b601f016020900490600052602060002090810190610947919061094a565b50565b61096491905b808211156108ff5760008155600101610950565b9056fea165627a7a723058202d37adc82fd17a54757653ccaf88c4294fffeea80548a1d7ee5559aaed8f9c090029",
  "source": "pragma solidity ^0.5.0;\n\ncontract TodoList {\n    uint public taskCount = 0;\n\n    event TaskEdited(uint id, string content, bool completed);\n    event DeleteTask(uint id, string content, bool completed);\n\n    struct Task {\n        uint id;\n        string content;\n        bool completed;\n    }\n\n    mapping(uint => Task) public tasks;\n\n    function createTask(string memory _content) public {\n        taskCount++;\n        tasks[taskCount] = Task(taskCount, _content, false);\n        emit TaskEdited(taskCount, _content, false);\n    }\n\n    function updateTask(\n        uint _id,\n        string memory _content,\n        bool _completed\n    ) public {\n        Task memory _task = tasks[_id];\n        _task.content = _content;\n        _task.completed = _completed;\n        tasks[_id] = _task;\n        emit TaskEdited(_task.id, _task.content, _task.completed);\n    }\n\n    function deleteTask(uint _id) public {\n        Task memory _task = tasks[_id];\n\n        delete tasks[_id];\n\n        emit DeleteTask(_task.id, _task.content, _task.completed);\n    }\n}\n",
  "sourcePath": "/Users/apple/Documents/Node/Eth/contracts/TodoList.sol",
  "compiler": {
    "name": "solc",
    "version": "0.5.0+commit.1d4f565a.Emscripten.clang"
  },
  "schemaVersion": "3.0.1",
  "updatedAt": "2023-05-04T11:57:12.507Z",
  "devdoc": {
    "methods": {}
  },
  "userdoc": {
    "methods": {}
  }
}